:100000000C943F0F0C94700F0C94700F0C94700FA5
:100010000C94700F0C94700F0C94700F0C94700F64
:100020000C94700F0C94700F0C94700F0C94700F54
:100030000C94700F0C941CC20C94700F0C94700FE5
:100040000C94700F0C94EA6F0C94700F0C94700F5A
:100050000C94700F0C94700F0C94A6810C941DBC22
:100060000C94700F0C94AD130C94700F0C94700FD3
:100070000C94700F0C94700F0C94700F0C94700F04
:100080000C94700F0C94700F0C94700F0C94700FF4
:100090000C94700F0C94700F0C94700F0C94700FE4
:1000A0000C94700F0C94700F0C94700F0C94700FD4
:1000B0000C94700F0C94700F0C94700F0C94700FC4
:1000C0000C94700F0C94700F0C94700F0C94700FB4
:1000D0000C94700F0C94700F0C94700F0C94700FA4
:1000E0000C94700F00820F822B823A8254826382BA
:1000F0007D82818289824FBD54BD59BD63BDDCBD07
:100100006DBD75BD7DBD87BD91BD9BBDAABDB4BD97
:10011000DCBDBEBDC8BDD2BDFABDFDBDF0BDF4BDE8
:1001200034BE01BE05BE0BBE0FBE13BE19BE1DBE42
:1001300021BE34BE27BE2BBE2FBE084AD73B3BCEC6
:10014000016E84BCBFFDC12F3D6C74319ABD5683D6
:100150003DDA3D00C77F11BED9E4BB4C3E916BAA8E
:10016000AABE000000803F05A84CCDB2D44EB938DD
:1001700036A9020C50B9918688083CA6AAAA2ABEC4
:10018000000000803F48617264636F6465642044CE
:10019000656661756C742053657474696E6773204D
:1001A0004C6F6164656400204400204900202020D9
:1001B0004D333031205000504944207365747469C8
:1001C0006E67733A00205A0020590020204D3230CB
:1001D00036205800486F6D65206F66667365742021
:1001E000286D6D293A00204500205A002058002033
:1001F000420020540020204D32303520530041640D
:1002000076616E636564207661726961626C6573A4
:100210003A20533D4D696E20666565647261746570
:1002200020286D6D2F73292C20543D4D696E20744C
:10023000726176656C2066656564726174652028FC
:100240006D6D2F73292C20423D6D696E696D756D42
:10025000207365676D656E742074696D6520286D07
:1002600073292C20583D6D6178696D756D20585942
:10027000206A65726B20286D6D2F73292C20205AFF
:100280003D6D6178696D756D205A206A65726B20CD
:10029000286D6D2F73292C2020453D6D6178696D87
:1002A000756D2045206A65726B20286D6D2F73294E
:1002B0000020540020204D3230342053004163632D
:1002C000656C65726174696F6E3A20533D6163635A
:1002D000656C65726174696F6E2C20543D72657433
:1002E0007261637420616363656C65726174696FC8
:1002F0006E00204500205A0020590020204D323049
:10030000312058004D6178696D756D2041636365DA
:100310006C65726174696F6E20286D6D2F73322960
:100320003A00204500205A0020590020204D32304C
:10033000332058004D6178696D756D206665656480
:10034000726174657320286D6D2F73293A00204502
:1003500000205A0020590020204D393220580053E7
:10036000746570732070657220756E69743A0065EB
:1003700063686F3A0053544F505045442E2000504C
:1003800072696E7465722073746F70706564206436
:10039000756520746F206572726F72732E204669C6
:1003A0007820746865206572726F7220616E6420B7
:1003B000757365204D39393920746F2072657374F7
:1003C0006172742E202854656D7065726174757247
:1003D000652069732072657365742E2053657420DF
:1003E00069742061667465722072657374617274D9
:1003F000696E6729004B494C4C45442E20005072D1
:10040000696E7465722068616C7465642E206B6916
:100410006C6C28292063616C6C656421006F6B0033
:10042000526573656E643A20002200556E6B6E6FE4
:10043000776E20636F6D6D616E643A2022004368B1
:10044000616E67652066696C616D656E74007A5FC8
:100450006D61783A20007A5F6D696E3A2000795FAD
:100460006D61783A2000795F6D696E3A2000785F9F
:100470006D61783A2000785F6D696E3A20005A3AD3
:1004800000593A0020436F756E7420583A20004599
:100490003A005A3A00593A00583A004649524D57E4
:1004A0004152455F4E414D453A4D61726C696E2037
:1004B00056313B20537072696E7465722F67726299
:1004C0006C206D617368757020666F722067656E51
:1004D00036204649524D574152455F55524C3A6875
:1004E0007474703A2F2F7777772E6D656E64656C14
:1004F0002D70617274732E636F6D2050524F544F84
:10050000434F4C5F56455253494F4E3A312E30209F
:100510004D414348494E455F545950453A4D656EEB
:1005200064656C2045585452554445525F434F55BD
:100530004E543A3120555549443A303030303030FD
:1005400030302D303030302D303030302D303030B4
:10055000302D3030303030303030303030300A00F4
:100560004D656E64656C204F66662E004D656E6449
:10057000656C2052656164792E0042656420646F69
:100580006E652E0020423A0020453A00543A00425F
:1005900065642048656174696E672E004865617402
:1005A000696E6720646F6E652E0020573A00204503
:1005B0003A00543A0048656174696E672E2E2E0029
:1005C0002042403A0020403A00202F003A002054B8
:1005D00000202F0020423A00202F006F6B20543A59
:1005E000002569206D696E2C2025692073656300E4
:1005F000456E642066696C65206C697374004265A1
:1006000067696E2066696C65206C697374004E6F53
:10061000206D6F76652E00526573756D696E67206B
:100620007072696E74005761697420666F7220750C
:100630007365722E2E2E000A00205A3A200020598F
:100640003A200042656420506F736974696F6E20B0
:10065000583A20000A00207A3A200020793A2000F7
:1006600042656420783A20000A00207A3A2000206F
:10067000793A200042656420783A20000A00207A06
:100680003A200020793A200042656420783A200020
:100690005A50726F6265204F7574736964652042A9
:1006A0006564005A50726F6265204F757473696497
:1006B000652042656400486F6D6520582F5920629F
:1006C00065666F7265205A00486F6D6520582F5916
:1006D000206265666F7265205A00536C6565702EE6
:1006E0002E2E00256920686F757273202569206D94
:1006F000696E7574657300446F6E65207072696E03
:1007000074696E672066696C650053544F5050459C
:10071000442E20005072696E7465722073746F707D
:100720007065642064756520746F206572726F72E5
:10073000732E2046697820746865206572726F7226
:1007400020616E6420757365204D39393920746FCE
:1007500020726573746172742E202854656D706503
:100760007261747572652069732072657365742E89
:100770002053657420697420616674657220726507
:100780007374617274696E6729006F6B004E6F201D
:100790004C696E65204E756D62657220776974686C
:1007A00020636865636B73756D2C204C61737420D6
:1007B0004C696E653A20004E6F20436865636B7329
:1007C000756D2077697468206C696E65206E756D33
:1007D0006265722C204C617374204C696E653A20FE
:1007E00000636865636B73756D206D69736D61740B
:1007F00063682C204C617374204C696E653A20004C
:100800004C696E65204E756D626572206973206E4D
:100810006F74204C617374204C696E65204E756D49
:100820006265722B312C204C617374204C696E65AB
:100830003A20004D31313000446F6E65207361768F
:10084000696E672066696C652E006F6B004D3239EA
:10085000002020506C616E6E65724275666665722E
:1008600042797465733A20002046726565204D65B3
:100870006D6F72793A20004A616E20323720323033
:10088000313500436F6D70696C65643A2000286EE5
:100890006F6E652C2064656661756C7420636F6E85
:1008A0006669672900207C20417574686F723A2060
:1008B000004A616E20323720323031352031363AED
:1008C00035323A333100204C6173742055706461C5
:1008D0007465643A2000312E302E30004D61726C08
:1008E000696E200020536F667477617265205265CF
:1008F00073657400205761746368646F6720526584
:10090000736574002042726F776E206F7574205289
:1009100065736574002045787465726E616C205251
:100920006573657400506F776572557000737461FC
:100930007274002200656E717565696E6720220011
:100940002200656E717565696E67202200FFFFFFEA
:100950000000A0400000A0400000803F00004D4388
:1009600000004D430000484300000000000000006C
:100970000000000000004D4300004D4300004843CC
:100980000000000000000000000000006563686FC8
:100990003A004572726F723A007C3C3E5E2B3D3FDE
:1009A0002F5B5D3B2C2A225C004D383420582059A7
:1009B000205A20450043616E6E6F7420656E746529
:1009C00072207375626469723A20004D3234004DB2
:1009D0003233202573006175746F25692E670065B9
:1009E00072726F722077726974696E6720746F20FB
:1009F00066696C65004E6F74205344207072696E96
:100A000074696E67002F005344207072696E7469B8
:100A10006E67206279746520002E0044656C6574F1
:100A2000696F6E206661696C65642C2046696C652F
:100A30003A200046696C652064656C657465643AAB
:100A4000002E006F70656E206661696C65642C20F5
:100A500046696C653A200057726974696E67207444
:100A60006F2066696C653A20002E006F70656E20FD
:100A70006661696C65642C2046696C653A20002EBD
:100A8000006F70656E206661696C65642C20466934
:100A90006C653A200046696C652073656C6563740B
:100AA0006564002053697A653A200046696C6520C8
:100AB0006F70656E65643A20002E006F70656E2061
:100AC0006661696C65642C2046696C653A20004E4D
:100AD0006F772066726573682066696C653A2000DE
:100AE0004E6F7720646F696E672066696C653A2087
:100AF000002220706F73002220706172656E743A5C
:100B00002200535542524F5554494E452043414CC3
:100B10004C207461726765743A2200747279696E50
:100B20006720746F2063616C6C207375622D67633E
:100B30006F64652066696C657320776974682074DA
:100B40006F6F206D616E79206C6576656C732E20F9
:100B50004D4158206C6576656C2069733A005344AA
:100B60002063617264206F6B006F70656E526F6FEF
:100B700074206661696C656400766F6C756D652EB6
:100B8000696E6974206661696C656400534420690C
:100B90006E6974206661696C006563686F3A004530
:100BA00072726F723A0020746F6F206C6F6E6720E4
:100BB000657874727573696F6E2070726576656E94
:100BC0007465640020636F6C64206578747275735B
:100BD000696F6E2070726576656E7465640065631A
:100BE000686F3A00656E6473746F7073206869741F
:100BF0003A205A00205A3A00656E6473746F70731D
:100C0000206869743A20590020593A00656E64736F
:100C1000746F7073206869743A20580020583A0045
:100C2000656E6473746F7073206869743A20002471
:100C3000F4D43050C38E20C2A24017828B701112A0
:100C40007A910D816CD90AA861E108C758660761DD
:100C50005143061E4B5D05C145A7041A4111040905
:100C60003D9803713931034036DB0265339102D47C
:100C7000305402802E1D02632CEE01752AC501B08E
:100C800028A001102781018F2564012B244B01E04E
:100C9000223401AC211F018D200D01801FFC008436
:100CA0001EED00971DDF00B81CD200E61BC6002019
:100CB0001BBC00641AB200B219A8000A19A0006A8D
:100CC000189900D117910040178B00B51684003198
:100CD000167E00B31579003A157300C7146F0058DB
:100CE000146A00EE1366008813630025135E00C7C4
:100CF000125B006C12570015125400C111510070A4
:100D0000114F0021114B00D61049008D10470046AD
:100D100010440002104200C00F4000800F3E00420D
:100D20000F3C00060F3B00CB0E3800930E37005CE3
:100D30000E3500270E3400F30D3200C10D31009046
:100D40000D3000600D2E00320D2D00050D2C00D948
:100D50000C2B00AE0C2900850C29005C0C270035FB
:100D60000C27000E0C2600E80B2400C40B2400A066
:100D70000B23007D0B23005A0B2100390B21001897
:100D80000B2000F80A1F00D90A1E00BB0A1E009D96
:100D90000A1D00800A1D00630A1C00470A1B002C64
:100DA0000A1B00110A1A00F7091A00DD091900C40C
:100DB000091900AB091900920917007B0918006393
:100DC0000917004C09160036091600200916000AFA
:100DD000091500F5081500E0081400CC081400B847
:100DE000081400A4081400900813007D0812006B7A
:100DF0000813005808120046081200340811002396
:100E00000811001208110001081100F0071000E09D
:100E1000071000D0071000C0071000B0070F00A196
:100E200007100091070E0083070F0074070F00657D
:100E3000070E0057070E0049070E003B070D002E56
:100E4000070E0020070D0013070D0006070D00F91F
:100E5000060C00ED060D00E0060C00D4060C00C8E0
:100E6000060C00BC060C00B0060C00A4060B009992
:100E7000060C008D060B0082060B0077060B006C3B
:100E8000060B0061060A0057060B004C060A0042DA
:100E9000060A0038060A002E060A0024060A001A6E
:100EA000060A001006090007060A00FD050900F4FD
:100EB000050900EB050900E2050900D9050900D084
:100EC000050900C7050900BE050900B5050800AD04
:100ED000050800A50509009C050800940508008C7C
:100EE000050800840508007C050800740508006CEE
:100EF000050700650508005D050700560508004E5A
:100F000005070047050700400508003805070031C0
:100F10000507002A050700230507001C0506001623
:100F20000507000F0507000805060002050700FB7E
:100F3000040600F5040700EE040600E8040600E2DB
:100F4000040700DB040600D5040600CF040600C930
:100F5000040600C3040600BD040600B7040600B181
:100F6000040500AC040600A6040600A00405009BCE
:100F700004060095040500900406008A0405008517
:100F8000040500800406007A04050075040500705D
:100F90000405006B04050066040500610405005C9F
:100FA00004050057040500520405004D04050048DF
:100FB000040500430405003E0404003A040500351E
:100FC000040500300404002C040500270404002359
:100FD0000405001E0404001A040400160405001190
:100FE0000404000D040400090405000404040000C6
:100FF000040400FC030400F8030400F4030400F0FC
:10100000030400EC030400E8030400E4030400E02C
:10101000030400DC030400D8030400D4030400D05C
:10102000030400CC030400C8030300C50303002429
:10103000F404D9201BC40C5C0E9804C4095F02653B
:10104000077101F405F900FB04B30048048700C1EF
:101050000369005803550003034500BE023A0084AB
:1010600002310053022A002902250004022000E474
:10107000011C00C8011900AF011700980114008479
:10108000011300710110006101100051010E0043B5
:10109000010D0036010B002B010B0020010B001588
:1010A0000109000C01090003010800FB000800F31E
:1010B000000800EB000700E4000600DE000600D890
:1010C000000600D2000600CC000500C7000500C2E3
:1010D000000500BD000400B9000400B5000400B123
:1010E000000400AD000400A9000400A5000300A254
:1010F0000003009F0004009B00030098000300957C
:1011000000020093000300900003008D0002008B9A
:1011100000030088000200860002008400030081B2
:101120000002007F0002007D0002007B00020079C7
:1011300000020077000100760002007400020072D5
:10114000000100710002006F0002006D0001006CE0
:101150000002006A000100690002006700010066E9
:1011600000010065000100640002006200010061EE
:10117000000100600001005F0002005D0001005CF2
:101180000001005B0001005A0001005900010058F5
:1011900000010057000100560001005500010054F5
:1011A00000010053000000530001005200010051F3
:1011B000000100500001004F0001004E0000004EF1
:1011C0000001004D0001004C0001004B0000004BED
:1011D0000001004A000100490001004800000048E9
:1011E00000010047000100460000004600010045E4
:1011F00000000045000100440001004300000043DE
:1012000000010042000000420001004100000041D6
:10121000000100400001003F0000003F0001003ECF
:101220000000003E0001003D0000003D0001003CC8
:101230000000003C0000003C0001003B0000003BBF
:101240000001003A0000003A0001003900000039B6
:1012500000010038000000380000003800010037AD
:1012600000000037000100360000003600000036A4
:101270000001003500000035000000350001003499
:10128000000000340000003400010033000000338F
:101290000000003300010032000000320000003284
:1012A0000001003100000031000000310001003079
:1012B00000000030000000300001002F0000002F6F
:1012C0000000002F0000002F0001002E0000002E63
:1012D0000000002E0001002D0000002D0000002D58
:1012E0000000002D0001002C0000002C0000002C4C
:1012F0000000002C0001002B0000002B0000002B40
:101300000000002B0001002A0000002A0000002A33
:101310000000002A00010029000000290000002927
:10132000000000290000002900010028000000281A
:10133000000000280000002800000028000100270D
:101340000000002700000027000000270000002701
:1013500000010026000000260000002600000026F4
:1013600000000026000100250000002500000025E7
:1013700000000025000000250000002500010024D9
:1013800000000024000000240000002400000024CD
:1013900000010023000000230000002300000023C0
:1013A00000000023000000230000002300010022B1
:1013B00000000022000000220000002200000022A5
:1013C0000000002200010021000000210000002197
:1013D0000000002100000021000000210000002189
:1013E000000100200000002000000020000000207C
:1013F000000000200000002000000020000000206D
:101400000001001F0000001F0000001F0000001F5F
:101410000000001F0000001F0000001F0001001E50
:101420000000001E0000001E0000001E00000065FD
:1014300063686F3A004572723A204D415854454DE9
:1014400050204245440054656D7065726174757238
:1014500065206865617465642062656420737769DE
:101460007463686564206F66662E204D415854454C
:101470004D50207472696767657265642021210090
:101480004572723A204D494E54454D50003A204520
:1014900078747275646572207377697463686564C3
:1014A000206F66662E204D494E54454D5020747273
:1014B000696767657265642021004572723A204D44
:1014C000415854454D50003A204578747275646512
:1014D00072207377697463686564206F66662E2076
:1014E0004D415854454D5020747269676765726567
:1014F00064202100202D20496E76616C696420658E
:1015000078747275646572206E756D6265722021E3
:1015100000504944204175746F74756E652066698A
:101520006E69736865642120507574207468652045
:101530004B702C204B6920616E64204B6420636FDC
:101540006E7374616E747320696E746F20436F6E76
:1015500066696775726174696F6E2E6800504944E0
:10156000204175746F74756E65206661696C656481
:10157000212074696D656F75740020403A006F6BAF
:1015800020543A006F6B20423A0050494420417584
:10159000746F74756E65206661696C656421205492
:1015A000656D706572617475726520746F6F206807
:1015B00069676800204B643A2000204B693A20009C
:1015C000204B703A200020436C61736963205049BE
:1015D0004420002054753A2000204B753A2000200A
:1015E0006D61783A2000206D696E3A200020643ADF
:1015F000200020626961733A20004572726F723A6E
:10160000001000C90210012C0140012201700118D4
:1016100001B0010E01F00104015002FA00B002F025
:10162000003003E600D003DC009004D2007005C84F
:1016300000A006BE000008B400B009AA00D00BA0AC
:1016400000600E960060118C000015820020197851
:1016500000C01D6E00A0226400B0275A00902C50DC
:101660000000314600E0343C0010383200903A2847
:1016700000603C1E00A03D1400803E0A00203F0098
:101680000070012C0190012701B0012201C0011D51
:1016900001F00118011002130130020E016002096D
:1016A0000190020401C002FF000003FA004003F5AC
:1016B000008003F000D003EB002004E6007004E19A
:1016C00000E004DC004005D700C005D2004006CD94
:1016D00000D006C8008007C3003008BE00F008B97B
:1016E00000C009B400B00AAF00B00BAA00D00CA52E
:1016F00000000EA000500F9B00C0109600501291E9
:101700000000148C00C0158700B0178200B0197D4E
:1017100000D01B7800001E730040206E00902269EC
:1017200000F024640040275F0090295A00E02B5508
:1017300000102E500020304B0010324600E03341A4
:101740000090353C001037370070383200A0392D3A
:1017500000B03A2800A03B2300603C1E00103D1959
:1017600000903D1400103E0F00703E0A00C03E0580
:1017700000003F0000473238002D2D3A2D2D002D5E
:101780002D2D005344002059000120000120004D60
:10179000363030004368616E67652066696C616D44
:1017A000656E7400466C6F7700466C6F770046611B
:1017B0006E2073706565640046616E2073706565A8
:1017C000640042656400426564004E6F7A7A6C651D
:1017D000004E6F7A7A6C65005370656564005370D3
:1017E000656564004D61696E00580059005A0045F6
:1017F0007874727564657200457874727564657288
:10180000004D6F7665205A004D6F76652059004D6A
:101810006F76652058004D6F7665204178697300BA
:101820004D6F766520302E316D6D004D6F766520E1
:10183000316D6D004D6F76652031306D6D005072E9
:101840006570617265004D6F76652041786973003F
:101850004D38300053776974636820506F77657234
:10186000204F6E004D383100537769746368205003
:101870006F776572204F666600436F6F6C646F7799
:101880006E00507265686561742041425300507269
:10189000656865617420504C4100473238004175DD
:1018A000746F20486F6D65004D3834004469736172
:1018B000626C65205374657070657273004D616968
:1018C0006E0042656400426564004E6F7A7A6C6512
:1018D000004E6F7A7A6C650046616E2073706565A4
:1018E000640046616E2073706565640054656D70B8
:1018F00065726174757265004265640042656400DA
:101900004E6F7A7A6C65004E6F7A7A6C650046612C
:101910006E2073706565640046616E207370656546
:10192000640054656D706572617475726500507203
:1019300065686561742041425320436F6E660050B4
:1019400072656865617420504C4120436F6E66007B
:101950005049442D43005049442D43005049442DE3
:1019600044005049442D44005049442D49005049F9
:10197000442D49005049442D50005049442D5000F9
:1019800020022046616374002002204661637400D7
:101990002002204D6178002002204D617800200255
:1019A000204D696E002002204D696E004F66660072
:1019B0004F6E20004F6666004F6E20004175746FB9
:1019C00074656D700046616E2073706565640046D5
:1019D000616E2073706565640042656400426564F1
:1019E000004E6F7A7A6C65004E6F7A7A6C650043B0
:1019F0006F6E74726F6C004573746570732F6D6DCC
:101A0000004573746570732F6D6D005A7374657043
:101A1000732F6D6D005A73746570732F6D6D00595F
:101A200073746570732F6D6D005973746570732FC7
:101A30006D6D005873746570732F6D6D00587374FD
:101A40006570732F6D6D00412D72657472616374E2
:101A500000412D7265747261637400416D6178207C
:101A60006500416D6178206500416D6178207A00E4
:101A7000416D6178207A00416D6178207900416D77
:101A80006178207900416D6178207800416D61783E
:101A90002078005654726176206D696E005654723B
:101AA0006176206D696E00566D696E00566D696EC7
:101AB00000566D6178206500566D6178206500568E
:101AC0006D6178207A00566D6178207A00566D61DC
:101AD00078207900566D6178207900566D61782004
:101AE0007800566D617820780056652D6A65726BB6
:101AF0000056652D6A65726B00567A2D6A65726BA9
:101B000000567A2D6A65726B005678792D6A657277
:101B10006B005678792D6A65726B00416363656C62
:101B200000416363656C00436F6E74726F6C0052AA
:101B30006573746F7265204661696C7361666500D8
:101B40004D6F74696F6E0054656D70657261747568
:101B50007265004D61696E004D383420582059205F
:101B60005A2045004D3234004D3233202573000594
:101B70002E2E000452656672657368004D61696EB1
:101B8000004D323100496E69742E2053442D43615B
:101B90007264004E6F2043617264004D3231004325
:101BA00068616E67652053442D4361726400507212
:101BB000696E742066726F6D2053440053746F70A9
:101BC000205072696E7400526573756D6520507295
:101BD000696E74005061757365205072696E74008F
:101BE000436F6E74726F6C00507265706172650045
:101BF00054756E6500496E666F2073637265656E1D
:101C0000000000090A02080B0C0D0706030401007E
:101C100000000000000000000000000000000000C4
:101C20000000000000000000000000000011100F84
:101C300000000000000000000000000000000000A4
:101C40000000000000000001021020200808102001
:101C50004010204080020102010804020101020438
:101C600008102040808040201008040201800402F7
:101C7000018040201008040201080402010102044E
:101C8000081020408001020408102040800505054E
:101C900005070508080808020202020A0A080804E3
:101CA0000404040101010101010101030303030311
:101CB000030303040707070C0C0C0C0C0C0C0C02A0
:101CC00002020206060606060606060B0B0B0B0BA7
:101CD0000B0B0B00002200250028002B002E0031EA
:101CE00000340002010000050108010B0100002181
:101CF00000240027002A002D0030003300010100DD
:101D000000040107010A01024E414E494E4954594F
:101D1000494E46CDCCCC3D0AD7233C17B7D13877B6
:101D2000CC2B329595E6241FB14F0A0000204100CC
:101D300000C84200401C4620BCBE4CCA1B0E5AAE16
:101D4000C59D74000C9421BE0C94A4BE0C9434BEAA
:101D50000C9489820C9472AF0C946C3F0C94BA88EA
:101D60000C9463820C94F0BD0C9401BE0C94D99633
:101D70000C9419BE0C9400820C947E980C940EA8BE
:101D80000C9481820C941DBE0C9427BE0C9410AE52
:101D90000C940FBE0C940DB20C949BBD0C94AABD78
:101DA0000C9464AB0C94B84A0C943DA70C94BEBD43
:101DB0000C9454BD0C9459BD0C940B850C946CA6DA
:101DC0000C94D2BD0C942B820C9475BD0C94C7A5B9
:101DD0000C9452880C947D820C947E860C9405BEE3
:101DE0000C9460880C942BBE0C94A6880C94619182
:101DF0000C942FBE0C943DAA0C940F820C94A19EBF
:101E00000C940BBE0C943A820C9487BD0C9483C442
:101E10000C94DCBD0C947AA50C94239A0C94A9899B
:101E20000C94C8BD0C94FDBD0C94E38F0C94F76E1C
:101E30000C9454820C947DBD0C9413BE0C9465AD2F
:101E40000C940FAC0C9444880C94683F0C94C98C8F
:101E50000C94B4BD0C9491BD0C944FBD0C94C0AEC9
:101E60000C94F4BD0C9463BD0C94FABD0C946DBD40
:101E70000C94C5AA0C94BAAC683F7AA56C3F1124A7
:101E80001FBECFEFD1E2DEBFCDBF00E00CBF14E03C
:101E9000A0E0B2E0EAEDFFE901E00BBF02C007906D
:101EA0000D92A238B107D9F712E1A2E8B4E001C05F
:101EB0001D92AA33B107E1F71EE1CCE7DEE100E0B5
:101EC00006C022970109FE010BBF0E94D7CFC83779
:101ED000D10780E00807A9F70E947CC20C943AC79A
:101EE0000C940000CF93DF93CFE6D3E0FE01849102
:101EF000882341F09091C00095FFFCCF8093C600ED
:101F00003196F5CFEFE5F3E08491882341F090918D
:101F1000C00095FFFCCF8093C6003196F5CF80912D
:101F2000C00085FFFCCF8AE08093C600FE0184914B
:101F3000EFE6F3E0882349F09091C00095FFFCCFD5
:101F40008093C60031968491F5CF4091E210509174
:101F5000E3106091E4107091E51087E593E00E9432
:101F60007E194091E6105091E7106091E810709151
:101F7000E91084E593E00E947E194091EA105091A7
:101F8000EB106091EC107091ED1081E593E00E94F0
:101F90007E194091EE105091EF106091F010709109
:101FA000F1108EE493E00E947E198091C00085FFBD
:101FB000FCCF8AE08093C600FE018491EFE6F3E057
:101FC000882349F09091C00095FFFCCF8093C60014
:101FD00031968491F5CFE4E3F3E08491882341F0D6
:101FE0009091C00095FFFCCF8093C6003196F5CF4D
:101FF0008091C00085FFFCCF8AE08093C600FE017F
:102000008491EFE6F3E0882349F09091C00095FFBA
:10201000FCCF8093C60031968491F5CF4091F210A9
:102020005091F3106091F4107091F5108BE293E0F1
:102030000E947E194091F6105091F7106091F810AF
:102040007091F91088E293E00E947E194091FA1095
:102050005091FB106091FC107091FD1085E293E0AF
:102060000E947E194091FE105091FF106091001166
:102070007091011182E293E00E947E198091C0006C
:1020800085FFFCCF8AE08093C600FE018491EFE6D5
:10209000F3E0882349F09091C00095FFFCCF809336
:1020A000C60031968491F5CFE4E0F3E08491882373
:1020B00041F09091C00095FFFCCF8093C60031960F
:1020C000F5CF8091C00085FFFCCF8AE08093C600E9
:1020D000FE018491EFE6F3E0882349F09091C0007F
:1020E00095FFFCCF8093C60031968491F5CF409147
:1020F000D2105091D3106091D4107091D5108BEF05
:1021000092E00E9490194091D6105091D7106091A2
:10211000D8107091D91088EF92E00E9490194091E8
:10212000DA105091DB106091DC107091DD1085EFBA
:1021300092E00E9490194091DE105091DF10609162
:10214000E0107091E11082EF92E00E94901980916E
:10215000C00085FFFCCF8AE08093C600FE01849119
:10216000EFE6F3E0882349F09091C00095FFFCCFA3
:102170008093C60031968491F5CFEDEBF2E0849127
:10218000882341F09091C00095FFFCCF8093C6005A
:102190003196F5CF8091C00085FFFCCF8AE0809317
:1021A000C600FE018491EFE6F3E0882349F09091A8
:1021B000C00095FFFCCF8093C60031968491F5CF87
:1021C0004091CA105091CB106091CC107091CD10FD
:1021D00084EB92E00E947E194091C6105091C71086
:1021E0006091C8107091C91081EB92E00E947E1935
:1021F0008091C00085FFFCCF8AE08093C600FE017D
:102200008491EFE6F3E0882349F09091C00095FFB8
:10221000FCCF8093C60031968491F5CFEEEFF1E0CC
:102220008491882341F09091C00095FFFCCF80936A
:10223000C6003196F5CF8091C00085FFFCCF8AE0C3
:102240008093C600FE018491EFE6F3E0882349F015
:102250009091C00095FFFCCF8093C6003196849189
:10226000F5CF4091CE105091CF106091D010709169
:10227000D11085EF91E00E947E194091B6105091E7
:10228000B7106091B8107091B91082EF91E00E9480
:102290007E194091021150910311609104117091C7
:1022A00005118FEE91E00E9490194091C21050915B
:1022B000C3106091C4107091C5108CEE91E00E9423
:1022C0007E194091BE105091BF106091C010709166
:1022D000C11089EE91E00E947E194091BA10509190
:1022E000BB106091BC107091BD1086EE91E00E9411
:1022F0007E198091C00085FFFCCF8AE08093C600E4
:10230000FE018491EFE6F3E0882349F09091C0004C
:1023100095FFFCCF8093C60031968491F5CFE4ED14
:10232000F1E08491882341F09091C00095FFFCCFAB
:102330008093C6003196F5CF8091C00085FFFCCF19
:102340008AE08093C600FE018491EFE6F3E08823E3
:1023500049F09091C00095FFFCCF8093C600319664
:102360008491F5CF4091EE065091EF066091F00612
:102370007091F1068BEC91E00E947E194091F2067B
:102380005091F3066091F4067091F50688EC91E0A7
:102390000E947E194091F6065091F7066091F8066A
:1023A0007091F90685EC91E00E947E198091C00041
:1023B00085FFFCCF8AE08093C600FE018491EFE6A2
:1023C000F3E0882349F09091C00095FFFCCF809303
:1023D000C60031968491F5CFE7EBF1E08491882334
:1023E00041F09091C00095FFFCCF8093C6003196DC
:1023F000F5CF8091C00085FFFCCF8AE08093C600B6
:10240000FE01C491EFE6F3E0CC2349F08091C000D7
:1024100085FFFCCFC093C6003196C491F5CF4091A3
:102420007C0250917D0260917E0270917F028DEA64
:1024300091E00E947E1960917802709179028091FA
:102440007A0290917B020E941083AB01BC018AEA60
:1024500091E00E947E1960917402709175028091E2
:102460007602909177020E941E83AB01BC0187EA3D
:1024700091E00E947E198091C00085FFFCCF8AE028
:102480008093C600DF91CF910895AF92BF92CF9213
:10249000DF92EF92FF920F931F93CF93DF93CDB70D
:1024A000DEB7E0970FB6F894DEBF0FBECDBF80E178
:1024B000E9E9F2E0DE01919601900D928A95E1F74B
:1024C00080E1E9EAF2E0DE01519601900D928A95F1
:1024D000E1F780E1E9EBF2E0DE01119601900D9267
:1024E0008A95E1F76E0181E2C80ED11C82EEE82EDA
:1024F00080E1F82E8E010F5E1F4F62EF70E1AE019A
:102500004F5F5F4F92EDA92E90E1B92E20E030E0B1
:10251000F60181919191A191B1916F01F7018193A0
:102520009193A193B1937F01F80181919191A19130
:10253000B1918F01FB0181939193A193B193BF015D
:10254000FA0181919191A191B191AF01F50181932E
:102550009193A193B1935F012F5F3F4F24303105D9
:10256000B9F60E94F76E80E090E0A1EEB4E48093AB
:10257000CA109093CB10A093CC10B093CD1080E0F4
:1025800090E8ABE3B5E48093C6109093C710A09396
:10259000C810B093C9101092CE101092CF101092A4
:1025A000D0101092D11080E29EE4A0E0B0E08093C1
:1025B000021190930311A0930411B093051110928E
:1025C000B6101092B7101092B8101092B91080E0A7
:1025D00090E0A0E2B1E48093C2109093C310A09366
:1025E000C410B093C5108DEC9CECACECBEE38093B2
:1025F000BE109093BF10A093C010B093C11080E0A4
:1026000090E0A0EAB0E48093BA109093BB10A0933E
:10261000BC10B093BD101092F6061092F7061092FF
:10262000F8061092F9061092F2061092F306109234
:10263000F4061092F5061092EE061092EF06109234
:10264000F0061092F10684EB90E09093FF118093D6
:10265000FE1186E490E09093FD118093FC118FEFC2
:1026600090E09093FB118093FA1120EF30E03093CB
:10267000F9112093F81124E630E03093F7112093FC
:10268000F6119093F5118093F41180E090E0ACE0A6
:10269000B2E480937C0290937D02A0937E02B0937B
:1026A0007F0265E87BEE81E990E40E9409836093F4
:1026B00078027093790280937A0290937B0264E1AE
:1026C0007EE286E892E40E9417836093740270931E
:1026D000750280937602909377020E94DA7980E007
:1026E00090E0A0E8BFE38093700290937102A09302
:1026F0007202B0937302EFE6F3E08491882341F015
:102700009091C00095FFFCCF8093C6003196F5CF25
:10271000E5E8F1E08491882341F09091C00095FFB5
:10272000FCCF8093C6003196F5CF8091C00085FF25
:10273000FCCF8AE08093C600E0960FB6F894DEBF27
:102740000FBECDBFDF91CF911F910F91FF90EF9002
:10275000DF90CF90BF90AF9008951F920F920FB669
:102760000F9211240BB60F922F933F934F935F93C9
:102770006F938F939F93EF93FF936091C600209187
:10278000030530910405C90101968F77992740917F
:102790000505509106058417950741F0F901ED579D
:1027A000FB4F60839093040580930305FF91EF91A5
:1027B0009F918F916F915F914F913F912F910F90CA
:1027C0000BBE0F900FBE0F901F9018959A01AB0192
:1027D000211581EE38074105510549F182E08093CA
:1027E000C00060E079E08DE390E00E94A3CF21502B
:1027F000310941095109CA01B90122E030E040E044
:1028000050E00E94A3CF3093C5002093C400809174
:10281000C10080618093C1008091C1008860809375
:10282000C1008091C10080688093C100089510921A
:10283000C00020E130E0E7CF20910505309106058A
:1028400080910305909104058217930771F0F901B7
:10285000ED57FB4F80812F5F3F4F2F77332730930A
:1028600006052093050590E008958FEF9FEF0895EA
:1028700080910505909106059093040580930305CA
:1028800008954F925F926F927F928F929F92AF9234
:10289000BF92CF92DF92EF92FF920F931F93CF934D
:1028A000DF93CDB7DEB7A0970FB6F894DEBF0FBEAB
:1028B000CDBF5C014115510561057105F1F420E0C2
:1028C00030E040E350E060E070E0A0960FB6F8948E
:1028D000DEBF0FBECDBFDF91CF911F910F91FF9053
:1028E000EF90DF90CF90BF90AF909F908F907F90B0
:1028F0006F905F904F900C94D9148E010F5F1F4F13
:10290000C12CD12C76014801422E512C612C712C06
:102910008FEFC81AD80AE80AF80ACB01BA01A30156
:1029200092010E9481CFCA01F80161938F01A90130
:10293000BC01411551056105710551F7F1E0CF1A50
:10294000D108E108F108F401EC0DFD1D80818A3009
:1029500010F440E301C047E3480F552747FD509569
:10296000652F752F20E030E0C5010E94D91481E069
:10297000C81AD108E108F108EFEFCE16DE06EE0620
:10298000FE0609F7A0960FB6F894DEBF0FBECDBFC6
:10299000DF91CF911F910F91FF90EF90DF90CF903B
:1029A000BF90AF909F908F907F906F905F904F906F
:1029B00008952115310539F48091C00085FFFCCFC1
:1029C0004093C60008952A30310511F40C9408157F
:1029D0000C944114CF93DF93EC0120E030E04DE004
:1029E00050E060E070E00E94D91420E030E04AE05E
:1029F00050E060E070E0CE01DF91CF910C94D914EB
:102A00009A01AB01662757FD6095762F0C94D91477
:102A1000CF92DF92EF92FF92CF93DF93EC016A01A6
:102A20007B0177FF10C020E030E04DE250E060E035
:102A300070E00E94D914F094E094D094C094C11C2A
:102A4000D11CE11CF11C2AE0B701A601CE01DF91E7
:102A5000CF91FF90EF90DF90CF900C94411421150F
:102A6000310539F48091C00085FFFCCF4093C6004A
:102A700008950C9441149A01462F50E060E070E0F4
:102A80000C942F15CF93DF93EC019A01AB0160E01A
:102A900070E00E942F15CE01DF91CF910C94EA14C3
:102AA0008F929F92AF92BF92CF92DF92EF92FF925E
:102AB0001F93CF93DF93EC016A017B01122F20E07B
:102AC00030E0A901C701B6010E94F7C887FF0DC019
:102AD00020E030E04DE250E060E070E0CE010E9486
:102AE000D914F7FAF094F7F8F094B12C60E070E0A4
:102AF00080E09FE3B11641F020E030E040E251E495
:102B00000E94FEC8B394F6CF9B01AC01C701B60189
:102B10000E941EC86B017C010E946BC94B015C01C5
:102B20000E9497C99B01AC01C701B6010E941DC854
:102B30006B017C012AE0B501A401CE010E94411481
:102B4000112361F0E7E7F4E08191882339F0909157
:102B5000C00095FFFCCF8093C600F6CF112321F172
:102B600020E030E040E251E4C701B6010E94CCCB46
:102B70006B017C010E9466C94B01AA2497FCA094BA
:102B8000BA2CB501A401CE010E940815C501B401FB
:102B90000E9499C99B01AC01C701B6010E941DC8E2
:102BA0006B017C011150DACFDF91CF911F91FF9023
:102BB000EF90DF90CF90BF90AF909F908F9008954F
:102BC0000C945015FC01659175918591949108952F
:102BD0008091B8069091B906A091BA06B091BB0653
:102BE00080930B0290930C02A0930D02B0930E02FF
:102BF00080910A0790910B079093200280931F0207
:102C00000E9467BC6093170570931805809319059F
:102C100090931A05089580910B0290910C02A09157
:102C20000D02B0910E028093B8069093B906A0935E
:102C3000BA06B093BB0680911F0290912002909338
:102C40000B0780930A0784E690E09093200280931C
:102C50001F020E9467BC609317057093180580934C
:102C6000190590931A0581E00C94E16F4F925F92E1
:102C70006F927F928F929F92AF92BF92CF92DF928C
:102C8000EF92FF920F931F9340900B0250900C0213
:102C900060900D0270900E02812CE0E89E2EEBEB0E
:102CA000AE2EE5E4BE2E80920B0290920C02A09212
:102CB0000D02B0920E026093FA067093FB068093A9
:102CC000FC069093FD062093FE063093FF0640938A
:102CD000000750930107E0920207F0920307009368
:102CE000040710930507EEEDF6E0FF93EF93812CB8
:102CF000912CF8ECAF2EF2E4BF2EA6E0CA2EA7E08E
:102D0000DA2E0E9487630E94AE7740920B025092A7
:102D10000C0260920D0270920E020F900F901F91A4
:102D20000F91FF90EF90DF90CF90BF90AF909F906A
:102D30008F907F906F905F904F9008952F923F9269
:102D40004F925F926F927F928F929F92AF92BF92BB
:102D5000CF92DF92EF92FF920F931F93CF93DF9367
:102D600000D01F92CDB7DEB781E492E00E9491BA05
:102D7000E9E2F2E0608171818281938160930B02CC
:102D800070930C0280930D0290930E0220E030E0CD
:102D900040E752E40E94FEC84B015C01EEEFF6E012
:102DA0002081318142815381EAEFF6E060817181B7
:102DB00082819381BEED2B2EB6E03B2E3F922F9267
:102DC00016E0C12E17E0D12EE12CF12C00E211EC1F
:102DD0000E9487630E94AE7782E00E9417784B01C1
:102DE0005C01EEEFF6E02081318142815381EAEF10
:102DF000F6E06081718182819381850174010E9476
:102E0000E76D88E599E00E94E2152B013C019B01EA
:102E1000AC01C501B4010E941EC869837A838B830B
:102E20009C8320E030E040E752E460910B02709117
:102E30000C0280910D0290910E020E94FEC84B017F
:102E40005C01EEEFF6E02081318142815381EAEFAF
:102E5000F6E060817181828193813F922F92E980B7
:102E6000FA800B811C810E9487630E94AE7720E06C
:102E700030E040E85EE3E9E2F2E060817181828166
:102E800093810E94CCCB60930B0270930C028093D1
:102E90000D0290930E0220E030E040E752E40E94E1
:102EA000FEC84B015C01A3019201C301B2010E9463
:102EB0001EC89B01AC0169817A818B819C810E9433
:102EC0001DC87B018C01EEEFF6E02081318142814B
:102ED0005381EAEFF6E060817181828193813F92B4
:102EE0002F920E9487630E94AE7782E00E9417783B
:102EF0007B018C01609302077093030780930407A2
:102F000090930507EEEFF6E02081318142815381F5
:102F1000EAEFF6E060817181828193810E94E76D22
:102F20000F900F900F900F900F900F900F900F90A9
:102F30000F900F90DF91CF911F910F91FF90EF9025
:102F4000DF90CF90BF90AF909F908F907F906F90C9
:102F50005F904F903F902F9008952F923F924F9205
:102F60005F926F927F928F929F92AF92BF92CF9219
:102F7000DF92EF92FF920F931F93CF93DF93CDB722
:102F8000DEB72E970FB6F894DEBF0FBECDBF988781
:102F90008F83FC01E35BF64FB490880F991F880F75
:102FA000991F9E878D878650994F9A878987DC0164
:102FB0001D921D921D921C921397A2E06A2EA7E00B
:102FC0007A2EF301E080F18002811381BEEF4B2E57
:102FD000B6E05B2ED2012D913D914D915C91EAEFCF
:102FE000F6E06081718182819381E6E0CE2EE7E098
:102FF000DE2E0E94E76D8D859E85845A964F0E9435
:10300000E2156B017C016B2D772767FD7095872F8B
:10301000972F0E9499C96B837C838D839E838D85B6
:103020009E858453994F9A83898320E030E040EC59
:103030005FE3C701B6010E94CCCB2B813C814D815F
:103040005E810E94CCCBA981BA816D937D938D93D3
:103050009C931397ED85FE85EF5DFD4FFC87EB8715
:10306000608171818281938160930B0270930C0265
:1030700080930D0290930E0220E030E040E752E48E
:103080000E94FEC84B015C01A4EDB6E0ED90FD90FE
:103090000D911C91E0EDF6E0208131814281538158
:1030A000ACECB6E06D917D918D919C91FEED2F2E53
:1030B000F6E03F2E3F922F92A8EDCA2EA6E0DA2E20
:1030C0000E9487630E94AE77E985FA85108211829B
:1030D00012821382D301ED90FD900D911C91F201AB
:1030E0002081318142815381AAEFB6E06D917D91BB
:1030F0008D919C91B6E0CB2EB7E0DB2E0E94E76D60
:103100008D859E85805B964F0E94E2152B013C01C8
:1031100090582B813C814D815E810E94CCCBE9810E
:10312000FA81608371838283938320E030E040E7FB
:1031300052E460910B0270910C0280910D0290910B
:103140000E020E94FEC84B015C01A4EDB6E0ED90BA
:10315000FD900D911C91E0EDF6E0208131814281DE
:103160005381ACECB6E06D917D918D919C913F9235
:103170002F92E8EDCE2EE6E0DE2E0E9487630E94BD
:10318000AE77A3019201C301B2010E941EC82B8138
:103190003C814D815E810E94CCCBE981FA816083C4
:1031A00071838283938320E030E040E05FE3AB856E
:1031B000BC856D917D918D919C910E94CCCB60934B
:1031C0000B0270930C0280930D0290930E0220E08C
:1031D00030E040E752E40E94FEC84B015C01E4EDA0
:1031E000F6E0E080F18002811381A0EDB6E02D9140
:1031F0003D914D915C91ECECF6E0608171818281B2
:1032000093813F922F920E9487630E94AE778D85B3
:103210009E858859964F0E94E215ED85FE85E25104
:10322000F94FC080D180E280F380A70196010E940F
:103230001EC84B015C01A985BA856D937D938D9362
:103240009C9313978D859E858058964F0E94E2151A
:103250000D851E850E51194FA70196010E941EC8AB
:10326000F80160837183828393838D859E858C585A
:10327000964F0E94E2150D851E850F5E1D4FA7011A
:1032800096010E941EC8D8016D937D938D939C93E7
:103290001397E981FA8180829182A282B38210928F
:1032A0000B0210920C0210920D0210920E020E945C
:1032B000DA6FEF81F885E152F94F81E080830F905A
:1032C0000F900F900F900F900F902E960FB6F894CE
:1032D000DEBF0FBECDBFDF91CF911F910F91FF9049
:1032E000EF90DF90CF90BF90AF909F908F907F90A6
:1032F0006F905F904F903F902F900895FC01249124
:10330000222341F03091C00035FFFCCF2093C6004E
:103310000196F4CF22E030E082E894E00C94E015CE
:10332000FC012491222341F03091C00035FFFCCFF5
:103330002093C6000196F4CF2AE030E082E894E0C2
:103340000C942F15CF93DF931F921F92CDB7DEB74A
:1033500080913412909135129E012F5F3F4F00975C
:1033600019F42A53324102C0281B390B3A832983AE
:1033700089819A810F900F90DF91CF9108952091CC
:10338000210530912205243031050CF06AC04091AE
:1033900023055091240560E6649F9001659F300DE0
:1033A0001124BC01C901855D9A4F0E94CAC7ECE88F
:1033B000F9E08491882341F09091C00095FFFCCF03
:1033C0008093C6003196F5CFE2E4F9E0849188233A
:1033D00041F09091C00095FFFCCF8093C6003196DC
:1033E000F5CF809123059091240520E6289FF001D8
:1033F000299FF00D1124E55DFA4F8191882339F062
:103400009091C00095FFFCCF8093C600F6CFE0E41A
:10341000F9E08491882341F09091C00095FFFCCFA2
:103420008093C6003196F5CF8091C00085FFFCCF18
:103430008AE08093C600809123059091240501962F
:1034400064E070E00E946DCF909324058093230583
:1034500080912105909122050196909322058093F9
:103460002105089520912105309122052430310550
:103470000CF06AC0409123055091240560E6649FDA
:103480009001659F300D1124BC01C901855D9A4FE3
:103490000E944DC7ECE8F9E08491882341F09091B7
:1034A000C00095FFFCCF8093C6003196F5CFE5E3D1
:1034B000F9E08491882341F09091C00095FFFCCF02
:1034C0008093C6003196F5CF809123059091240515
:1034D00020E6289FF001299FF00D1124E55DFA4FA9
:1034E0008191882339F09091C00095FFFCCF8093A3
:1034F000C600F6CFE3E3F9E08491882341F0909190
:10350000C00095FFFCCF8093C6003196F5CF809127
:10351000C00085FFFCCF8AE08093C6008091230520
:1035200090912405019664E070E00E946DCF909325
:103530002405809323058091210590912205019611
:1035400090932205809321050895269A2E98089538
:103550000E94A51A40E052EC61E070E082E894E03D
:103560000E94E613EDE2F9E08491882341F0909106
:10357000C00095FFFCCF8093C6003196F5CF8091B7
:10358000C00085FFFCCF8AE08093C6008CE899E0FC
:10359000FC012491222341F03091C00035FFFCCF83
:1035A0002093C6003196F5CF24B720FF14C0E5E282
:1035B000F9E03491332341F04091C00045FFFCCF46
:1035C0003093C6003196F5CF3091C00035FFFCCF67
:1035D0003AE03093C60021FF14C0E5E1F9E03491F0
:1035E000332341F04091C00045FFFCCF3093C6002B
:1035F0003196F5CF3091C00035FFFCCF3AE03093E3
:10360000C60022FF14C0E4E0F9E03491332341F016
:103610004091C00045FFFCCF3093C6003196F5CFF6
:103620003091C00035FFFCCF3AE03093C60023FF55
:1036300014C0E4EFF8E03491332341F04091C0002E
:1036400045FFFCCF3093C6003196F5CF3091C000D6
:1036500035FFFCCF3AE03093C60025FF14C0E4EEFE
:10366000F8E02491222341F03091C00035FFFCCFD7
:103670002093C6003196F5CF2091C00025FFFCCFE6
:103680002AE02093C60014BEECEDF8E0249122233A
:1036900041F03091C00035FFFCCF2093C600319639
:1036A000F5CFE6EDF8E02491222341F03091C000FF
:1036B00035FFFCCF2093C6003196F5CF2091C00096
:1036C00025FFFCCF2AE02093C600FC012491ECE802
:1036D000F9E0222349F03091C00035FFFCCF209360
:1036E000C60031962491F5CFE6ECF8E02491222330
:1036F00041F03091C00035FFFCCF2093C6003196D9
:10370000F5CFE1EBF8E02491222341F03091C000A5
:1037100035FFFCCF2093C6003196F5CFE5EAF8E0FF
:103720002491222341F03091C00035FFFCCF20933B
:10373000C6003196F5CFEEE8F8E02491222341F05F
:103740003091C00035FFFCCF2093C6003196F5CFF5
:103750002091C00025FFFCCF2AE02093C600E3E8BB
:10376000F8E02491222341F03091C00035FFFCCFD6
:103770002093C6003196F5CFE7E7F8E024912223A5
:1037800041F03091C00035FFFCCF2093C600319648
:10379000F5CF2091C00025FFFCCF2AE02093C60082
:1037A000FC018491ECE8F9E0882349F09091C00095
:1037B00095FFFCCF8093C60031968491F5CFE8E663
:1037C000F8E08491882341F09091C00095FFFCCFF0
:1037D0008093C6003196F5CF0E94A2194AE050E0CE
:1037E000BC0182E894E00E940015E1E5F8E08491D4
:1037F000882341F09091C00095FFFCCF8093C600D4
:103800003196F5CF4AE050E060ED74E082E894E054
:103810000E9400158091C00085FFFCCF8AE0809354
:10382000C6001092270510922805109229051092C3
:103830002A050E9445120E94720F0E94DE7B0E94A0
:1038400020620E941A770E94C894FFEF23ED80E364
:10385000F15020408040E1F700C0000008958091C1
:103860001B0590911C0560E070E001960C9489C4E2
:1038700080911B0590911C054AE050E060E070E0EB
:1038800001960C9406C6682F772767FD70952091E6
:1038900025053091260540E6429FC001439F900DCB
:1038A0001124855D9A4F0E94BFC790931C05809399
:1038B0001B0521E0892B09F420E0822F08950E9446
:1038C00067BC609317057093180580931905909352
:1038D0001A05E0912505F0912605E95DFA4F8081F2
:1038E000811114C0EDE1F4E08491882341F09091BE
:1038F000C00095FFFCCF8093C6003196F5CF809134
:10390000C00085FFFCCF8AE08093C600089582E85E
:1039100094E00E943814E0E2F4E08491882341F0BE
:103920009091C00095FFFCCF8093C6003196F5CFF3
:103930004091B0065091B1066091B2067091B30605
:103940004F5F5F4F6F4F7F4F2AE030E082E894E097
:103950000E94D9148091C00085FFFCCF8AE080933B
:10396000C6000C945F1C2F923F924F925F926F9211
:103970007F928F929F92AF92BF92CF92DF92EF92FF
:10398000FF920F931F93CF93DF93CDB7DEB76F975F
:103990000FB6F894DEBF0FBECDBF10E6D12E04E007
:1039A000E02EF12CE4E1F7E0B4908AE0C82EEAE8DA
:1039B000F7E0A490992493948091030590910405D5
:1039C0002091050530910605821B930B8F7799276F
:1039D000892B09F427C28091210590912205049733
:1039E0000CF020C282E894E00E941C148093200511
:1039F00020911E0530911F058A3061F08D3051F005
:103A00008A3321F490911D05992321F02F3531053A
:103A10000CF428C12115310509F442C18091230518
:103A200090912405D89E8001D99E100D1124F80193
:103A3000E20FF31FE55DFA4F108220911D05211161
:103A40000CC110921D05FC01E95DFA4F108298012E
:103A5000255D3A4F39016EE470E0C9010E94BFC78D
:103A60000097F1F190931C0580931B058619970927
:103A7000800F911F4AE050E060E070E0845D9A4F53
:103A80000E9406C66093B4067093B5068093B6068E
:103A90009093B7064090B0065090B1066090B20681
:103AA0007090B3063FEF431A530A630A730A0091FA
:103AB000230510912405641575058605970509F4FD
:103AC000F2C0D09EC001D19E900D112463E378E036
:103AD000855D9A4F0E9484C7892B09F0E4C075C1A7
:103AE0006AE270E0C3010E94BFC7892B09F444C099
:103AF000E2E9F9E08491882341F09091C00095FFBC
:103B0000FCCF8093C6003196F5CFEDE8F7E08491C5
:103B1000882341F09091C00095FFFCCF8093C600B0
:103B20003196F5CF4091B0065091B1066091B20642
:103B30007091B3062AE030E082E894E00E94D91444
:103B40008091C00085FFFCCF8AE08093C600109270
:103B50001F0510921E05D5C28091B4069091B5063E
:103B6000A091B606B091B7068093B0069093B106C7
:103B7000A093B206B093B3068091230590912405DB
:103B8000D89E8001D99E100D1124C801855D9A4FE1
:103B90003C0167E470E00E94BFC7009709F448C089
:103BA00090931C0580931B0586199709800F911F20
:103BB00060E070E0845D9A4F0E9489C40E9466C9EB
:103BC00064307105A8F580910905811119C08091B3
:103BD000100781112DC08A2DEAE8F7E0882349F00B
:103BE0009091C00095FFFCCF8093C60031968491E0
:103BF000F5CF8091C00085FFFCCFC092C60018C0F1
:103C00008B2DE4E1F7E0882349F09091C00095FF07
:103C1000FCCF8093C60031968491F5CF8091C0008F
:103C200085FFFCCFC092C6008AE097E00E941B94FB
:103C300080912305909124050196B7010E946DCFD4
:103C4000909324058093230580912105909122056E
:103C50000196909322058093210510921F051092E2
:103C60001E05AACE8B3311F490921D0590911D056F
:103C70009111A2CE4091230550912405B9016F5FA7
:103C80007F4F70931F0560931E05D49EF001D59E53
:103C9000F00D1124E20FF31FE55DFA4F80838CCE07
:103CA00010921D052EC2D09E3001D19E700C1124A1
:103CB0009301255D3A4F29016AE270E0C9010E9433
:103CC000BFC7009791F5E2E9F9E08491882341F0BC
:103CD0009091C00095FFFCCF8093C6003196F5CF40
:103CE000E7EBF7E08491882341F09091C00095FFC5
:103CF000FCCF8093C6003196F5CF4091B00650912D
:103D0000B1066091B2067091B3062AE030E082E815
:103D100094E00E94D9148091C00085FFFCCF8AE016
:103D20008093C6000E94871C12CF20E010E0F301B0
:103D3000E20FF11DE55DFA4F30813A3219F02F5F45
:103D40001327F5CF90931C0580931B0584199509C3
:103D5000860D971D60E070E0845D9A4F0E9489C4D3
:103D60000E9466C9212F30E02617370709F4F4CEE8
:103D7000E2E9F9E08491882341F09091C00095FF39
:103D8000FCCF8093C6003196F5CFE1EEF7E0849149
:103D9000882341F09091C00095FFFCCF8093C6002E
:103DA0003196F5CF4091B0065091B1066091B206C0
:103DB0007091B3062AE030E082E894E00E94D914C2
:103DC0008091C00085FFFCCFAACFE2E9F9E08491A1
:103DD000882341F09091C00095FFFCCF8093C600EE
:103DE0003196F5CFE0E0F8E08491882341F090919E
:103DF000C00095FFFCCF8093C6003196F5CF40916F
:103E0000B0065091B1066091B2067091B3062AE0F7
:103E100030E082E894E00E94D9148091C00085FFD0
:103E2000FCCF7DCF80911207882309F46AC180916D
:103E30001E0590911F05892B09F063C18091210512
:103E400090912205892B11F410920705E7EFF6E017
:103E50002490ACE3CA2ED12CE12CF12CB0E14B2EF6
:103E6000BEE05B2E612C712C8E010F5F1F4FF0E6C0
:103E70003F2EECE8F9E094919F8F40919309509187
:103E80009409609195097091960980918B099091A0
:103E90008C09A0918D09B0918E09481759076A07BE
:103EA0007B0708F02EC1809121059091220504978F
:103EB0000CF027C180910705811123C18091E6088C
:103EC0009091E708A091E808B091E90880939309E0
:103ED00090939409A0939509B09396098EED98E07C
:103EE0000E946044482F809320058A30B9F04D30FD
:103EF000A9F0433229F420911D05222379F002C054
:103F00004A33C9F320911E0530911F052F35310525
:103F10002CF48F3FAFEF9A0709F0D4C0409193097A
:103F200050919409609195097091960980918B093F
:103F300090918C09A0918D09B0918E09481759076D
:103F40006A077B0708F482C0822DE7EFF6E088233A
:103F500049F09091C00095FFFCCF8093C600319648
:103F60008491F5CF8091C00085FFFCCF8AE08093DB
:103F7000C6000E9467BC60930B0570930C0580938C
:103F80000D0590930E0580900F0590901005A09060
:103F90001105B0901205681979098A099B0928EE64
:103FA00033E040E050E00E9481CF49015A01CA014C
:103FB000B901A70196010E9481CFCA01B901A701E9
:103FC00096010E9481CF7F936F93C501B401A30135
:103FD00092010E9481CF3F932F93A3EEB6E0BF934F
:103FE000AF931F930F930E94EEC78F8D0FB6F89477
:103FF000DEBF0FBECDBFECE8F9E0882349F0909119
:10400000C00095FFFCCF8093C60031968491F5CF18
:10401000F8018191882339F09091C00095FFFCCF81
:104020008093C600F6CF8091C00085FFFCCF8AE068
:104030008093C600C8010E940C9480E197E00E9422
:10404000B85A61E080E197E00E9415588091200500
:10405000833219F481E08093070520911E05309189
:104060001F052115310509F41BCE80912305909180
:104070002405389EF001399EF00D1124E20FF31F44
:10408000E55DFA4F1082FC01E95DFA4F21E02083E3
:1040900020912105309122052F5F3F4F309322055B
:1040A00020932105019664E070E00E946DCF90930B
:1040B00024058093230510921D0510921F05109270
:1040C0001E05DBCE4B3319F441E040931D054091B2
:1040D0001D054111CCCE4091230550912405B90115
:1040E0006F5F7F4F70931F0560931E05349EF00134
:1040F000359EF00D1124E20FF31FE55DFA4F80832A
:10410000BCCE6F960FB6F894DEBF0FBECDBFDF9169
:10411000CF911F910F91FF90EF90DF90CF90BF90C4
:10412000AF909F908F907F906F905F904F903F9057
:104130002F9008958F929F92AF92BF92CF92DF926D
:10414000EF92FF920F931F93CF93DF9397E0E92EA7
:1041500094E0F92E0AEF16E0CCECD6E02CE0C22E6B
:1041600027E0D22EF70181917F010E94431C882312
:1041700019F10E942F1C4B015C01F6018081811115
:1041800003C06091AB0601C061E070E080E090E0A8
:104190000E9499C9F80120813181428153810E9496
:1041A000CCCB9B01AC01C501B4010E941EC8688341
:1041B00079838A839B8309C0F80180819181A281E0
:1041C000B38188839983AA83BB830C5F1F4F249696
:1041D000FFEFCF1ADF0A8BE0E81684E0F80611F64D
:1041E00086E40E94431C8823D9F00E942F1C6B0197
:1041F0007C016093BC067093BD068093BE069093CD
:10420000BF0620E030E0A9010E94FACA181644F463
:10421000C0920B02D0920C02E0920D02F0920E02BC
:10422000DF91CF911F910F91FF90EF90DF90CF9092
:10423000BF90AF909F908F9008950E949A2089E43C
:104240000E94431C882359F00E942F1C6093C006D3
:104250007093C1068093C2069093C30608C0109263
:10426000C0061092C1061092C2061092C3068AE4DC
:104270000E94431C882359F00E942F1C6093C4069F
:104280007093C5068093C6069093C7060895109252
:10429000C4061092C5061092C6061092C70608956D
:1042A000CF92DF92EF92FF92CF93DF93EC01C09019
:1042B000E206D090E306E090E406F090E506A70160
:1042C0009601688179818A819B810E94F7C887FF66
:1042D00004C0C882D982EA82FB82C090E606D090F0
:1042E000E706E090E806F090E906A70196016C81E8
:1042F0007D818E819F810E94F7C887FF04C0CC8298
:10430000DD82EE82FF82C090EA06D090EB06E0905C
:10431000EC06F090ED06A7019601688579858A85FF
:104320009B850E94F7C887FF04C0C886D986EA86A5
:10433000FB86C0901102D0901202E0901302F09020
:104340001402A7019601688179818A819B810E946C
:10435000FACA181624F4C882D982EA82FB82C09075
:104360001502D0901602E0901702F0901802A701F3
:1043700096016C817D818E819F810E94FACA1816F8
:1043800024F4CC82DD82EE82FF82C0901902D090AC
:104390001A02E0901B02F0901C02A70196016885AA
:1043A00079858A859B850E94FACA181624F4C886E6
:1043B000D986EA86FB86DF91CF91FF90EF90DF9060
:1043C000CF9008954F925F926F927F928F929F92BB
:1043D000AF92BF92CF92DF92EF92FF920F931F9313
:1043E000CF93DF93CDB7DEB728970FB6F894DEBF33
:1043F0000FBECDBF8CEC96E00E9450210E9467BC9E
:1044000060931705709318058093190590931A050A
:104410002091CC063091CD064091CE065091CF062A
:1044200029833A834B835C836091FA067091FB0683
:104430008091FC069091FD060E94F7C84090D0063E
:104440005090D1066090D2067090D3062091D40689
:104450003091D5064091D6065091D7062D833E83E4
:104460004F83588781118BC0A30192016091FE0692
:104470007091FF0680910007909101070E94F7C894
:1044800081117DC020E030E040E752E460910B02F2
:1044900070910C0280910D0290910E020E94FEC854
:1044A0004B015C018EED96E09F938F9338EDC32E08
:1044B00036E0D32EED80FE800F811885A301920196
:1044C00069817A818B819C810E9487630F900F9014
:1044D0008091CC069091CD06A091CE06B091CF06EA
:1044E0008093FA069093FB06A093FC06B093FD061A
:1044F0008091D0069091D106A091D206B091D306BA
:104500008093FE069093FF06A0930007B0930107E7
:104510008091D4069091D506A091D606B091D70689
:104520008093020790930307A0930407B0930507B5
:104530008091D8069091D906A091DA06B091DB0659
:104540008093060790930707A0930807B093090785
:1045500028960FB6F894DEBF0FBECDBFDF91CF9186
:104560001F910F91FF90EF90DF90CF90BF90AF9091
:104570009F908F907F906F905F904F900895609183
:104580001F0270912002882777FD8095982F0E9446
:1045900099C920910B0230910C0240910D0250916B
:1045A0000E020E94CCCB20E030E040E752E40E94B3
:1045B000FEC820E030E048EC52E470CFAF92BF92EA
:1045C000CF92DF92EF92FF920F931F93CF93DF93DF
:1045D000D82F2091C4063091C5064091C60650914F
:1045E000C7066091C0067091C1068091C206909185
:1045F000C3060E9407CBC62F172F082FF92E6091F4
:104600001F0270912002882777FD8095982F0E94C5
:1046100099C920910B0230910C0240910D025091EA
:104620000E020E94CCCB20E030E040E752E40E9432
:10463000FEC820E030E048EC52E40E94FEC8209121
:10464000DE062F93DF93FF920F931F93CF935B01AF
:104650006C0142E0E42E01E020E040EC56E06CEC1E
:1046600076E08AEF96E00E94355B8091CC069091CF
:10467000CD06A091CE06B091CF068093FA06909316
:10468000FB06A093FC06B093FD068091D0069091A6
:10469000D106A091D206B091D3068093FE069093E6
:1046A000FF06A0930007B09301078091D406909174
:1046B000D506A091D606B091D706809302079093B5
:1046C0000307A0930407B09305078091D806909143
:1046D000D906A091DA06B091DB0680930607909385
:1046E0000707A0930807B09309070E9467BC60936F
:1046F0001705709318058093190590931A050F906C
:104700000F900F900F900F900F90DF91CF911F910E
:104710000F91FF90EF90DF90CF90BF90AF900895F2
:10472000F8940E94877C5F9A1092DF068A9A109212
:10473000E0069FB7F894809108018160809308019A
:104740009FBF1092E106129A60E08CE00E9435BE95
:10475000E2E9F9E08491882341F09091C00095FF4F
:10476000FCCF8093C6003196F5CFEEEFF3E0849155
:10477000882341F09091C00095FFFCCF8093C60044
:104780003196F5CF8091C00085FFFCCF8AE0809301
:10479000C60085EF93E00E942A94FFCFCF92DF926C
:1047A000EF92FF920F931F930E9467BC0091130535
:1047B000109114052091150530911605C09017052C
:1047C000D0901805E0901905F0901A056C197D0934
:1047D0008E099F09061717072807390730F4012BA0
:1047E000022B032B11F00E949023809107029091DD
:1047F0000802A0910902B0910A02892B8A2B8B2B07
:1048000009F10E9467BC00911705109118052091CD
:10481000190530911A05601B710B820B930B0091E7
:104820000702109108022091090230910A0206172E
:1048300017072807390730F49091B00B8091AF0B20
:10484000981741F01F910F91FF90EF90DF90CF905C
:104850000C9469635F9A1092DF068A9A1092E006C0
:104860009FB7F894809108018160809308019FBFF1
:104870001092E106129AE6CF0E94877C809109058A
:10488000811138C081E0809309058091B006909134
:10489000B106A091B206B091B3068093AC06909396
:1048A000AD06A093AE06B093AF06E2E9F9E08491BD
:1048B000882341F09091C00095FFFCCF8093C60003
:1048C0003196F5CFEFE7F3E08491882341F09091A2
:1048D000C00095FFFCCF8093C6003196F5CF809144
:1048E000C00085FFFCCF8AE08093C60085E793E097
:1048F0000C941B940895809109050895CF93DF933C
:10490000EC018091DE0680930A0584E50E94431C39
:10491000811102C080E065C00E942F1C0E946BC9FB
:1049200060930A056623B1F3ECE8F9E084918823EB
:1049300041F09091C00095FFFCCF8093C600319666
:10494000F5CFC936D10599F034F4C836D105C9F58B
:10495000E6E5F3E015C0CD36D10531F0CA3DD1050D
:1049600081F5E1E1F3E02AC0E8E2F3E01DC0EFE306
:10497000F3E010C09091C00095FFFCCF8093C6007B
:1049800081918111F7CF1DC09091C00095FFFCCFA0
:104990008093C60081918111F7CF13C09091C00020
:1049A00095FFFCCF8093C60081918111F7CF09C09C
:1049B0009091C00095FFFCCF8093C600819181113A
:1049C000F7CF40E050E060910A0582E894E00E9451
:1049D0003B158091C00085FFFCCF8AE08093C60024
:1049E00081E0DF91CF9108952F923F924F925F9295
:1049F0006F927F928F929F92AF92BF92CF92DF92EF
:104A0000EF92FF920F931F93CF93DF93CDB7DEB753
:104A1000CF59D1090FB6F894DEBF0FBECDBF87E4E2
:104A20000E94431C882311F40C941E2D0E942F1CFD
:104A30000E9466C96C31710509F4AAC09CF4623009
:104A4000710509F44AC024F477FF3DC00C94BF3CC3
:104A50006330710509F449C06430710509F450C030
:104A60000C94BF3C6A35710509F47DC714F56D31AE
:104A7000710509F46BC36E31710511F00C94BF3CE4
:104A80000E94AE770E940B168091290290912A0213
:104A9000A0912B02B0912C0280930B0290930C02F8
:104AA000A0930D02B0930E020E949E16E3E4F6E07E
:104AB00002C76B35710509F45AC76C35710509F4E5
:104AC0005BC70C94BF3C80910905811106C00E9410
:104AD0009A200E94E2210C946F3E80910905811179
:104AE00004C00E941D2181E007C080910905811149
:104AF00007C00E941D2180E00E94DE220C946F3EC0
:104B00008AED96E00E941B9480E50E94431C882356
:104B100039F00E942F1C0E946BC94B015C0103C03D
:104B2000812C912C540183E50E94431C882361F061
:104B30000E942F1C20E030E04AE754E40E94CCCBD6
:104B40000E946BC94B015C010E94AE770E9467BC5A
:104B50006B017C01C80CD91CEA1CFB1C0E9467BCC1
:104B600060931705709318058093190590931A05A3
:104B70000E9467BC6C157D058E059F0510F00C9496
:104B8000BF3C0E94FC790E94CE230E94DFA8F0CF98
:104B900081E492E00E9491BA80910B0290910C0204
:104BA000A0910D02B0910E028093B8069093B906C1
:104BB000A093BA06B093BB0680911F029091200289
:104BC00090930B0780930A0784E690E0909320026D
:104BD00080931F020E9467BC6093170570931805AD
:104BE0008093190590931A0581E00E94E16F8091EE
:104BF000FA069091FB06A091FC06B091FD06809309
:104C0000CC069093CD06A093CE06B093CF068091AC
:104C1000FE069091FF06A0910007B09101078093D6
:104C2000D0069093D106A093D206B093D30680917C
:104C3000020790910307A0910407B09105078093A4
:104C4000D4069093D506A093D606B093D70680914C
:104C5000060790910707A0910807B0910907809374
:104C6000D8069093D906A093DA06B093DB0610928B
:104C70000B0210920C0210920D0210920E0288E5A7
:104C80000E94431C882311F090E00AC089E50E942D
:104C9000431C8111F9CF8AE50E94431C91E09827BB
:104CA00090930F0291110C94C23C88E50E94431C22
:104CB00081110C94C23C80910F0281110C94C83C6C
:104CC00089E50E94431C81110C94C83C88E50E9430
:104CD000431C8823D1F00E94381C672B682B692B5A
:104CE000A1F00E942F1C2091EE063091EF0640911A
:104CF000F0065091F1060E941EC86093FA06709368
:104D0000FB068093FC069093FD0689E50E94431CF8
:104D10008823D1F00E94381C672B682B692BA1F0E7
:104D20000E942F1C2091F2063091F3064091F40668
:104D30005091F5060E941EC86093FE067093FF0610
:104D4000809300079093010780910F02882309F454
:104D50009FC080E090E0A0EBB2E48093CC069093FB
:104D6000CD06A093CE06B093CF0680E090E0A8EBEE
:104D7000B2E48093D0069093D106A093D206B0936C
:104D8000D3061092D4061092D5061092D606109231
:104D9000D70680E090E8ABEBB5E480930B029093EC
:104DA0000C02A0930D02B0930E0210920207109213
:104DB000030710920407109205072091FE06309118
:104DC000FF0640910007509101076091FA0670912B
:104DD000FB068091FC069091FD06F6E0CF2EF7E0F1
:104DE000DF2EE12CF12C87010E94E76D80900B02F1
:104DF00090900C02A0900D02B0900E02E090D406AC
:104E0000F090D5060091D6061091D7062091D006D5
:104E10003091D1064091D2065091D3066091CC06D4
:104E20007091CD068091CE069091CF06EEEDF6E022
:104E3000FF93EF93A8EDCA2EA6E0DA2E0E948763B7
:104E40000E94AE778091CC069091CD06A091CE06BF
:104E5000B091CF068093FA069093FB06A093FC06D0
:104E6000B093FD068091D0069091D106A091D20614
:104E7000B091D3068093FE069093FF06A09300079F
:104E8000B093010782E090E00E94AD170F900F9061
:104E90008AE50E94431C882309F4EAC08091DF065A
:104EA000882309F49DC08091E006882309F498C006
:104EB0008090FA069090FB06A090FC06B090FD064C
:104EC00020E030E040E651E4C501B4010E941EC874
:104ED0006B017C0120E030E0A9010E94FACA87FD45
:104EE000A2C020E030E04DE453E4C701B6010E94C7
:104EF000F7C818160CF497C04090FE065090FF06B5
:104F0000609000077090010720E030E040E251E43B
:104F1000C301B2010E941EC86B017C0120E030E099
:104F2000A9010E94FACA87FD7EC020E030E04DE46E
:104F300053E4C701B6010E94F7C818160CF473C0F9
:104F400010920207109203071092040710920507AF
:104F5000B6E0CB2EB7E0DB2EE12CF12C8701A301CC
:104F60009201C501B4010E94E76DE092D406F0926F
:104F7000D5060093D6061093D7068090FA1090902D
:104F8000FB10A090FC10B090FD1080920B0290924C
:104F90000C02A0920D02B0920E022091D006309128
:104FA000D1064091D2065091D3066091CC06709103
:104FB000CD068091CE069091CF06EEEDF6E0FF9300
:104FC000EF93E8EDCE2EE6E0DE2E0E9487630E948E
:104FD000AE7782E090E00E94AD170F900F9048C02E
:104FE00088EC96E00E941B94ECE8F9E08491882319
:104FF00041F09091C00095FFFCCF8093C6003196A0
:10500000F5CFE6EBF6E08491882341F09091C00063
:1050100095FFFCCF8093C6003196F5CF8091C000FC
:1050200085FFFCCF22C083EA96E00E941B94ECE847
:10503000F9E08491882341F09091C00095FFFCCF66
:105040008093C6003196F5CFE0E9F6E0849188239D
:1050500041F09091C00095FFFCCF8093C60031963F
:10506000F5CF8091C00085FFFCCF8AE08093C60019
:105070008AE50E94431C8823D1F00E94381C672BCC
:10508000682B692BA1F00E942F1C2091F60630910D
:10509000F7064091F8065091F9060E941EC86093E9
:1050A000020770930307809304079093050780918C
:1050B0000F0281110C94CE3C8AE50E94431C8111A1
:1050C0000C94CE3CE0900207F09003070091040797
:1050D000109105072091FE063091FF0640910007D0
:1050E000509101076091FA067091FB068091FC06D1
:1050F0009091FD06A6E0CA2EA7E0DA2E0E94E76D89
:105100008091B8069091B906A091BA06B091BB06FD
:1051100080930B0290930C02A0930D02B0930E02A9
:1051200080910A0790910B079093200280931F02B1
:105130000E9467BC6093170570931805809319054A
:1051400090931A050E94DA6F0C94BF3C0E94AE77D0
:1051500081E492E00E9491BACE0185599F4F0E944E
:10516000706DAF966CAD7DAD8EAD9FADAF9760931A
:10517000FA067093FB068093FC069093FD06E39677
:105180002CAD3DAD4EAD5FADE3972093FE06309361
:10519000FF064093000750930107E796ECACFDAC87
:1051A0000EAD1FADE797E0920207F0920307009360
:1051B000040710930507E6E0CE2EE7E0DE2E0E94FE
:1051C000E76D0E940B168091290290912A02A0910E
:1051D0002B02B0912C0280930B0290930C02A093AF
:1051E0000D02B0930E022091FE063091FF06409111
:1051F0000007509101076091FA067091FB068091BB
:10520000FC069091FD06E12CF12C00EA10E40E94CE
:105210003616E0900207F090030700910407109102
:10522000050720E030E04CE053E460E070E080E609
:1052300091EC0E9436160E949E16409002075090F4
:1052400003076090040770900507E8E8F6E0849192
:10525000882341F09091C00095FFFCCF8093C60059
:105260003196F5CF4AE050E060E070E082E894E0EB
:105270000E940015E3E8F6E08491882341F09091C4
:10528000C00095FFFCCF8093C6003196F5CF4AE071
:1052900050E066E970E082E894E00E940015EEE7D5
:1052A000F6E08491882341F09091C00095FFFCCFF7
:1052B0008093C6003196F5CF4091020750910307C5
:1052C000609104077091050722E030E082E894E0E5
:1052D0000E94E015ECE7F6E08491882341F090917C
:1052E000C00095FFFCCF8093C6003196F5CF20E03B
:1052F00030E040EA50E4609102077091030780912A
:105300000407909105070E941EC87B018C01209123
:10531000FE063091FF064091000750910107609111
:10532000FA067091FB068091FC069091FD060E94A2
:105330003616E0900207F0900307009104071091E1
:10534000050720E030E040E251EC60E070E080E6EC
:1053500091EC0E9436160E949E1680910207909151
:105360000307A0910407B0910507C556DF4F888356
:105370009983AA83BB83CB59D040E4E7F6E08491BC
:10538000882341F09091C00095FFFCCF8093C60028
:105390003196F5CF4AE050E060E070E082E894E0BA
:1053A0000E940015EFE6F6E08491882341F0909189
:1053B000C00095FFFCCF8093C6003196F5CF4AE040
:1053C00050E060E070E082E894E00E940015EAE6B8
:1053D000F6E08491882341F09091C00095FFFCCFC6
:1053E0008093C6003196F5CF409102075091030794
:1053F000609104077091050722E030E082E894E0B4
:105400000E94E015E8E6F6E08491882341F090914F
:10541000C00095FFFCCF8093C6003196F5CF20E009
:1054200030E040EA50E460910207709103078091F8
:105430000407909105070E941EC87B018C012091F2
:10544000FE063091FF0640910007509101076091E0
:10545000FA067091FB068091FC069091FD060E9471
:105460003616E0900207F0900307009104071091B0
:10547000050720E030E040E251EC60E070E08CEFA6
:1054800092E40E9436160E949E1680900207909029
:105490000307A0900407B0900507E0E6F6E08491CA
:1054A000882341F09091C00095FFFCCF8093C60007
:1054B0003196F5CF4AE050E06CE870E082E894E085
:1054C0000E940015EBE5F6E08491882341F090916D
:1054D000C00095FFFCCF8093C6003196F5CF4AE01F
:1054E00050E060E070E082E894E00E940015E6E59C
:1054F000F6E08491882341F09091C00095FFFCCFA5
:105500008093C6003196F5CF409102075091030772
:10551000609104077091050722E030E082E894E092
:105520000E94E015E4E5F6E08491882341F0909133
:10553000C00095FFFCCF8093C6003196F5CF0E9446
:10554000E81581E492E00E9491BAC556DF4FC88009
:10555000D980EA80FB80CB59D04000E010E0980170
:10556000B901A801CE01815A9F4F0E9440B7730133
:10557000620100E010E026E133E440E050E0BA01CF
:10558000CE018D5A9F4F0E9440B77501640100E023
:1055900010E0980140E050E06CE073E4CE01895BDC
:1055A0009F4F0E9440B7A096AFACA097A196BFAC0A
:1055B000A197A296CFACA297A396DFACA397A4968F
:1055C000EFACA497A596FFACA597A6960FADA697AE
:1055D000A7961FADA797A8962FADA897A9963FAD00
:1055E000A997AA964FADAA97AB965FADAB97BE01B0
:1055F000695B7F4FDE0111964D01CD010E941DB800
:10560000B401CE01CB960E940EB9A096AFACA09784
:10561000A196BFACA197A296CFACA297A396DFAC00
:10562000A397A496EFACA497A596FFACA597A696D2
:105630000FADA697A7961FADA797A8962FADA897D1
:10564000A9963FADA997AA964FADAA97AB965FAD25
:10565000AB97BE016D5A7F4FC4010E941DB85E0119
:10566000BFE2AB0EB11CB401C5010E940EB9EDB78B
:10567000FEB73C970FB6F894FEBF0FBEEDBFADB7B7
:10568000BEB711968CE0F50101900D928A95E1F775
:10569000CBACDCACEDACFEAC0FAD21961FAD2197D1
:1056A00022962FAD229723963FAD239724964FAD98
:1056B000249725965FAD259726966FAD269727965A
:1056C0007FAD2797C4010E945AB73E01FFE16F0EDC
:1056D000711CB401C3010E940EB9CF8CD8A0E9A0FF
:1056E000FAA00BA11CA12DA13EA14FA158A569A50F
:1056F0007AA5CE0189589F4F0E94BBBA84E2FE0171
:10570000E958FF4FA1E4B2E001900D928A95E1F7CC
:10571000C4010E94706D69817A818B819C81609344
:10572000FA067093FB068093FC069093FD062D818C
:105730003E814F8158852093FE063093FF064093AB
:10574000000750930107E6E6CE2EDC2CE6E4EE2EB1
:10575000E0E4FE2EC0920207D0920307E092040715
:10576000F0920507F6E0CF2EF7E0DF2E16E6E12EE9
:10577000FE2C06E410E40E94E76D0E94AE7782E002
:105780000E9409780E9499C92091EA103091EB108B
:105790004091EC105091ED100E94FEC86B017C010D
:1057A00020E030E040E651E46091FA067091FB069B
:1057B0008091FC069091FD060E941EC86FA778ABF1
:1057C00089AB9AAB20E030E040E251E46091FE0604
:1057D0007091FF0680910007909101070E941EC8FA
:1057E0006F8F78A389A39AA38091020790910307F2
:1057F000A0910407B091050789839A83AB83BC838A
:105800009F928F927F926F92BF92AF922DB73EB7C9
:10581000245231090FB6F8943EBF0FBE2DBFADB76D
:10582000BEB7119684E2E1E4F2E001900D928A9510
:10583000E1F70E9423BAA701960169817A818B81E1
:105840009C810E941DC8209102073091030740915E
:105850000407509105070E941EC87B018C016093CC
:1058600002077093030780930407909305070FB610
:10587000F894DEBF0FBECDBF2091FE063091FF062B
:1058800040910007509101076091FA067091FB0664
:105890008091FC069091FD06B6E0CB2EB7E0DB2EA2
:1058A0000E94E76D0C94BF3C9091C00095FFFCCF27
:1058B0008093C600319684918111F6CF4091FA060B
:1058C0005091FB066091FC067091FD0622E030E0ED
:1058D00082E894E00E94E015EEE3F6E084918823EC
:1058E00041F09091C00095FFFCCF8093C6003196A7
:1058F000F5CF4091FE065091FF0660910007709130
:10590000010722E030E082E894E00E94E015E9E33C
:10591000F6E08491882341F09091C00095FFFCCF80
:105920008093C6003196F5CF40910207509103074E
:10593000609104077091050722E030E082E894E06E
:105940000E94E015E7E3F6E08491882341F090910E
:10595000C00095FFFCCF8093C6003196F5CF0E9422
:10596000E8150C94BF3C1092AB060C94BF3C81E050
:105970008093AB060C94BF3C85E40E94431C8111CC
:1059800002C00E94AE77B7E06B2EB4E07B2E1EEE15
:10599000812E16E0912E0AEFA02E06E0B02E512C9B
:1059A000D3018D913D010E94431C8823D9F1B3E0BE
:1059B0005B120CC00E942F1CF501608371838283EF
:1059C000938386E097E00E94CA6E2CC00E942F1C31
:1059D000D4012D913D914D915C910E941EC8F5011D
:1059E0006083718382839383E0900207F0900307C2
:1059F00000910407109105072091FE063091FF06E3
:105A000040910007509101076091FA067091FB06E2
:105A10008091FC069091FD06A6E0CA2EA7E0DA2E42
:105A20000E94E76D5394F4E08F0E911C24E0A20EC7
:105A3000B11C34E05312B4CF0C94BF3C8DE40E94EF
:105A4000431C882311F40C94EE3B0E942F1C0E94EF
:105A500066C96B36710509F40FC70CF0A9C06E3129
:105A6000710509F45CC20CF046C06631710509F499
:105A7000E7C1BCF46131710509F49DC134F46230B1
:105A8000710508F43DC10C94BF3C6431710509F403
:105A9000A3C10CF0CFC16231710509F419C70C9490
:105AA000BF3C6931710509F4EAC1CCF46731710575
:105AB00009F4CCC16831710511F00C94BF3C80E150
:105AC00097E00E9495520E9467BC60930F05709307
:105AD000100580931105909312050C94BF3C6B3117
